:0600000000308A00C9284F
:10000800F20003088301C5000408C6000A08C700F7
:100018008A0183018C1E4E288C12181D26288316EF
:100028002808203E8400831783121A08800083164C
:08003800A80A2808203E8400FC
:10004000831783121A0880008316A80A8312981C4B
:100050002B281812181683162808203E84008317B0
:1000600083121A0880008316A80A8312A01F43284F
:10007000143083162802031C4E28A8018312A013F3
:100080008316A7014E284D3083162802031C4E28E4
:100090004D30A800203E8400831780010B1DB92835
:1000A0000B118316A30AA50FAE2883122017051C77
:1000B000662883163C083B0403196328BB08031910
:1000C000BC03BB0382288312A0158228003083164C
:1000D0003C02013003193B0203187228BB0A0319C2
:1000E000BC0A82288312A01D8228A0118316A008B2
:1000F00083120319201403308316A104B701B80139
:10010000B901BA018312851D922883163E083D0469
:1001100003198F28BD080319BE03BD03AE2883123F
:100120002016AE28003083163E02013003193D022E
:1001300003189E28BD0A0319BE0AAE288312201E8A
:10014000AE2820128316A00883120319201403304E
:100150008316A104B701B801B901BA0103308316AF
:100160002302031CB928A40FB7288312A0168316F4
:10017000A3018B188B100B180B1083120C180C108A
:100180004608840047088A0045088300F20E720E74
:100190000900203084003530E3200730C900F030FA
:1001A000C800353084004530E820A0308400E230BB
:1001B000E3208317203084007030E3208A11F12A75
:1001C00004068001840A0406031DE028640000344C
:1001D000F0008A11F6208A118000840A0408700653
:1001E00003190034E92883120313C800C91B01292D
:1001F000491B092949088A004808C80A0319C90A7D
:1002000082008313491883174808C80A840000082D
:100210000800413454340034413454342B344334D2
:10022000483446343D3430342C3431340034413495
:1002300054342B3443344D34493443343D34303416
:100240002C3430340034413454342B345634543448
:1002500053343D34223430342234003441346C344D
:10026000613472346D3431340034003441346C34D0
:10027000613472346D3432340034003450346F34AD
:1002800077346534723400340034413454340034EB
:1002900041345434453430340034413454344134DE
:1002A00000344F344B340034413454342B34433411
:1002B0005234453447343F3400342B3443345234C1
:1002C000453447343A34203430342C34313400341B
:1002D0002B3443345234453447343A3420343034A8
:1002E0002C3435340034413454342B3443344F34BB
:1002F0004C3450343D3431340034413454342B3494
:1003000043344D34473446343D3431340034413481
:1003100054342B3443344C34493450343D34313428
:100320000034413454342B3443344D344734533443
:100330003D34003443345034423446343A3400348B
:100340002B3443344C34493450343A34003442343E
:1003500055345334593400344534523452344F34C4
:10036000523400344E344F34203443344134523408
:10037000523449344534523400344E344F342034EE
:1003800041344E34533457344534523400342C34D1
:100390002234003422342C3400343E3400342B34E4
:1003A00043344D34543449343A34003441345434B1
:1003B0002B3443344D34473452343D3400344134CB
:1003C00054342B3443344D34473444343D340034B6
:1003D0004134543444343E342234003441345434AF
:1003E0002B3443345034423446343D3422340034C8
:1003F000413454344834003400344F346E34313492
:10040000003400344F346E343234003400344F340E
:1004100066346634313400344F34663466343234F2
:10042000003452347334743400340034003454349F
:1004300065346C34313400340034003400345434C6
:1004400065346C3432340034003400340034003409
:10046200830108008301080083013108B3003208C8
:10047200B4003408C9003308B30A0319B40A8A1154
:10048200F3208A110038031D3A2A3408F100330898
:10049200F0003108F002031CF1033208F102FF30D0
:1004A200F007031CF10708008A2A2708AB00280876
:1004B200AC002908AD002A08AE002908B1002A08BC
:1004C200B2008A1135227008AF007108B0008A1597
:1004D2006D248A1171087004031D742A2808F10022
:1004E2002708F000080001302707AB00003003188E
:1004F20001302807AC002A08C90029088A11F32014
:10050200AD00AE018A154E248A117008A700710849
:10051200A80083120313280827040319992A28081C
:10052200C90027088A11F3208A110038031D562AB0
:10053200F001F10108008301A3000430A40053304C
:10054200A500A50BA22AA40BA02AA30B9E2A080091
:10055200831603139901990A24309800B03083124C
:1005620098000B1783168C16831208008F3083169F
:1005720003138100FD308500AF308600F83087001C
:100582009F0183129F0103179E019F018B01831616
:10059200031396018312031796018B169501831696
:1005A200031395018C018E018B178312850186013D
:1005B20087018C01900183160C1083129201553031
:1005C2008316920083129501031799019A019901EA
:1005D2009A01031397018316940183129401080070
:1005E200B722A92214308316B500FA30B60083125E
:1005F200A0110518A01520128519201683120313C5
:10060200A01E132C640083162108220583120319ED
:100612000C2B85100D2B8514861A352B143083165E
:1006220031020318372BB10A3108143A8312031D21
:10063200382B0715FA309C22FA309C22FA309C2281
:10064200FA309C22FA309C22FA309C22FA309C2208
:10065200FA309C22FA309C22FA309C22FA309C22F8
:10066200FA309C220711372B8316B1018312A01294
:1006720083162F0830060319492B2F08B000FA30D1
:10068200B60005302F0203186F2B3C30B6006F2BDB
:10069200B60803194E2BB6036F2BFA30B600093099
:1006A2002F02031C582B1430AF00B5016F2B83129D
:1006B2000715FA309C22FA309C22FA309C2207114C
:1006C200FA309C22FA309C22FA309C22FA309C2288
:1006D200FA309C22FA309C228316AF01B508031D22
:1006E200762B8A15C7258A11132CB5032030831265
:1006F200A7008130A8000C303F07A9000030031882
:1007020001304007AA008A1155228A11710870042B
:10071200031D102C2030A7008130A80067303F074E
:10072200A9000030031801304007AA008A1155229F
:100732008A1171087004031D102C2030A70081302B
:10074200A80062303F07A9000030031801304007BB
:10075200AA008A1155228A1171087004031D102CF7
:100762002030A7008130A8006D303F07A90000307B
:10077200031801304007AA008A1155228A11710814
:100782007004031D102C2030A7008130A800033014
:100792003F07A9000030031801304007AA008A1160
:1007A20055228A1171087004031D102C2030A700F5
:1007B2008130A80088303F07A900003003180130BB
:1007C2004007AA008A1155228A1171087004031D7C
:1007D200102C2030A7008130A8005B303F07A90011
:1007E2000030031801304007AA008A1155228A11ED
:1007F20071087004031D102C2030A7008130A8005E
:100802008A303F07A9000030031801304007AA00D0
:100812008A1155228A11710870040319132C8A1146
:10082200E4258A11201FFF2A2013201DFF2A831688
:100832002908C23E8400831300088312990083169C
:100842002908C23E840000080D3A03192F2C2908FA
:10085200C23E840000081A3A031D312C8312201173
:100862008316A90AFF2A8301211C482C0430F100B7
:10087200220E0F39F0007003F000F00A422C031030
:10088200F10DF00B402C7108FF3C8316A105831279
:10089200A11C5C2C1030F100220E0F39F000700305
:1008A200F000F00A562C0310F10DF00B542C7108D5
:1008B200FF3C8316A1058312080020308301A700A4
:1008C2008130A80062303F07A900003003180130D0
:1008D2004007AA008A1155228A117108700403196F
:1008E200752C14308316AF0020308312A70081309C
:1008F200A80067303F07A900003003180130400705
:10090200AA008A1155228A117108700403198C2CCD
:1009120014308316AF0020308312A7008130A80064
:100922006D303F07A9000030031801304007AA00CC
:100932008A1155228A11710870040319A32C1430EC
:100942008316AF0020308312A7008130A8007830D0
:100952003F07A9000030031801304007AA008A119E
:1009620055228A11710870040319BA2C14308316A7
:10097200AF008312080020308301A7008130A80055
:100982003708A9003808AA008A1155228A1171086D
:100992007004031DDF2C2030A7008130A80008302E
:1009A2003707A9000030031801303807AA008A115E
:1009B20055228A11710870040319E42CFC30831645
:1009C200A1050B30E62C14308316AF008312080009
:1009D20020308301A7008130A8003708A900380819
:1009E200AA008A1155228A1171087004031D01346C
:1009F2002030A7008130A80008303707A900003056
:100A0200031801303807AA008A1155228A11710889
:100A12007004031D013400348301A400A5012030B9
:100A2200A7008130A80082303F07A90000300318D8
:100A320001304007AA008A1155227008A600203012
:100A4200A7008130A80085303F07A90000300318B5
:100A520001304007AA008A1155228A117008A300AA
:100A62000230A6072308260203187E2D1530F00057
:100A72002408F100F10A3F2D0310F00DF10B3D2D7A
:100A820070088316A2047E2D83168C18452D8312BE
:100A92000313240EF039250703178D0003132608CC
:100AA20084008317000803178C0083168C1303102D
:100AB2008B1B03148B130C1555308D00AA308D003F
:100AC2008C140C1103188B178C18652D83120313C9
:100AD200240EF039250703178D0083168C130C148E
:100AE20083120313260884008317000803170C06D9
:100AF200031D452D0313A60AA50A0F3083122502F2
:100B02000318872D23082602031C672D8312031363
:100B1200240EF039250703178D0083168C130C144D
:100B220083120C080319B22D83168C18952D83128B
:100B32000313240EF039250703178D008C01831649
:100B42008C1303108B1B03148B130C1555308D0063
:100B5200AA308D008C140C1103188B178C1C872D56
:100B6200AF2D031301348301A3012030A70081308C
:100B7200A80085303F07A900003003180130400764
:100B8200AA008A1155228A117008A4000230A40713
:100B920024088400831700088316BF00C001C10126
:100BA2008312A40A2408840083170D3080040319D9
:100BB200E02D24088400831700088316C0008312E6
:100BC2000800B425013483160313B50120308312C3
:100BD200A7008130A8008A303F07A900003003181F
:100BE20001304007AA008A1155228A117108700447
:100BF2000319C52FB425C52F20308312A7008130D9
:100C0200A8000C303F07A90000300318013040074C
:100C1200AA008A1155228A11710870040319EE2F55
:100C22008316AF01AF0AEE2F20308312A700813066
:100C3200A8000C303F07A90000300318013040071C
:100C4200AA008A1155228A11710870040319EE2F25
:100C52000230B92F20308312A7008130A8000C3057
:100C62003F07A9000030031801304007AA008A118B
:100C720055228A11710870040319EE2F1530B92F0D
:100C820020308312A7008130A8000C303F07A90052
:100C92000030031801304007AA008A1155228A1138
:100CA200710870040319EE2F1630B92F2030831209
:100CB200A7008130A8000C303F07A90000300318BC
:100CC20001304007AA008A1155228A117108700466
:100CD2000319EE2F0330B92F20308312A700813081
:100CE200A8000C303F07A90000300318013040076C
:100CF200AA008A1155228A11710870040319EE2F75
:100D02000430B92F20308312A7008130A800183098
:100D12003F07A9000030031801304007AA008A11DA
:100D220055228A1171087004031DAA2E2030A700D3
:100D32008130A80023303F07A9000030031801309A
:100D42004007AA008A1155228A11710870040319FA
:100D5200EE2F05308316E02EFA30B60020308312D3
:100D6200A7008130A80055303F07A90000300318C2
:100D720001304007AA008A1155228A1171087004B5
:100D82000319C62E83162D080D252030A7008130A9
:100D9200A8000C303F07A9000030031801304007BB
:100DA200AA008A1155228A11710870040319EE2FC4
:100DB2008316AD0A02302D02031CEE2F0730AF005E
:100DC200AD01EE2F20308312A7008130A800183029
:100DD2003F07A9000030031801304007AA008A111A
:100DE20055228A1171087004031D0A2F2030A700B2
:100DF2008130A80023303F07A900003003180130DA
:100E02004007AA008A1155228A1171087004031939
:100E1200142F83162F08073A031D112F0830122FA3
:100E22000730AF00352FA01C352F0715FA308A1175
:100E32009C22FA308A119C22FA308A119C220711D4
:100E4200FA308A119C22FA308A119C22FA308A11D5
:100E52009C22FA308A119C22FA308A119C22FA30A2
:100E62008A119C228316AF0120308312A7008130A1
:100E7200A8005B303F07A90000300318013040078B
:100E8200AA008A1155228A11710870040319522F7F
:100E9200E924003803194F2F0C30502F14308316D9
:100EA200AF008316BF080319582F0F30AF0083120B
:100EB200A010EE2F831295012030A7008130A800E8
:100EC2000C303F07A9000030031801304007AA0088
:100ED2008A1155228A117108700403198C2FBC24BF
:100EE2008C2F0730AF0020308312A7008130A8007A
:100EF20088303F07A9000030031801304007AA00DC
:100F02008A1155228A11710870040319EE2F0E30CE
:100F1200B92F0D30AF005E24EE2F20308312A700D0
:100F22008130A8000C303F07A900003003180130BF
:100F32004007AA008A1155228A1171087004031908
:100F4200EE2FB82F20308312A7008130A8000C307A
:100F52003F07A9000030031801304007AA008A1198
:100F620055228A11710870040319B82F34240730EE
:100F72008316C32F1030AF008A15AB248A11EE2FCF
:100F8200BF010730AF00EE2F83162F08F000E93EB5
:100F92000318EE2F173E031CEE2F0030F00207302D
:100FA2008A00D730700703188A0A8200FD2D152E99
:100FB2002B2E6D2E832EAD2EEE2FE32EE32E5B2FE6
:100FC200722F8C2F8A2F8C2FA32FBB2FC12FEE2F86
:100FD200EE2FEE2F8E2F412E572E8312080009344A
:100FE200013417340234233401342E340134FD34F5
:0E0FF200013445340134173401340C34013419
:10189C0083012C08C9002B088A11F3208A15F0004B
:1018AC002D06031D5E2C2C08F1002B08F0000800FF
:1018BC002C08C9002B08AB0A0319AC0A8A11F320B7
:1018CC008A150038031D4E2CF001F10108009D2CE7
:1018DC002C08C9002B088A11F3208A15003803192B
:1018EC00862C2E08C9002D088A11F320F0002C0834
:1018FC00C9002B088A11F3208A1570060319972C3E
:10190C002C08C9002B088A11F320F000F1012E08D5
:10191C00C9002D088A11F3208A15F002031CF1036B
:10192C000800AB0A0319AC0AAD0A0319AE0A8312FC
:10193C0003132F080319B003AF032F0A0319300A3E
:10194C00031D6E2CF001F101080020308301A7006B
:10195C008130A8003708A9003808AA008A1155223E
:10196C008A15710870042030A7008130A800031D6F
:10197C00D22C08303707A900003003180130380783
:10198C00AA008A1155228A15710870040319292D91
:10199C002030A7008130A8003D08A9003E08AA000D
:1019AC008A11552271087004031D07142030A700FA
:1019BC008130A80005303D07A90000300318013024
:1019CC003E07AA008A11552271087004031D871462
:1019DC002030A7008130A8000A303D07A900003054
:1019EC00031801303E07AA008A11552271087004B1
:1019FC00031D07102030A7008130A8000F303D07D1
:101A0C00A9000030031801303E07AA008A115522A4
:101A1C0071087004031D87102030A7008130A800C6
:101A2C0014303D07A9000030031801303E07AA000E
:101A3C008A1155228A15710870040319292D033057
:101A4C008316AB00AC00831208008301A701A80128
:101A5C00831621082205A000A0080319822D3A083C
:101A6C003904031D7E2DAE0A0730AE058312201CEF
:101A7C00512D20108316AE01512DAE0A0730AE0544
:101A8C002E08063A031D512DB70A0319B80A370858
:101A9C00B9003808BA000130F00083162E08F100A6
:101AAC00F10A5A2D0310F00DF10B582D700820057A
:101ABC000319432D02302E020318662D2E0A832D96
:101ACC008312A101831620080C398312031D2114E3
:101ADC008316200830398312031DA11483162E0897
:101AEC000139F000F00EF030F0057008103E832D37
:101AFC00B9080319BA03B903003083120800830133
:101B0C00AB01AB0A20302B02031C872DAB012B0839
:101B1C00203E840083178001AB0A4E302B02031C3D
:101B2C008D2DAB012A08C90029088A11F3208A15CA
:101B3C0000380319B32D2A08C90029088A11F3208B
:101B4C008A15F0002B08C23E8400831370088000B5
:101B5C00AB0AA90A0319AA0A982D2B0808008301BD
:101B6C002708A9002808AA008525C23E84008313F3
:101B7C000D308000080083013908A7003A08A8003E
:101B8C00B52D8301A601A501A401A3018316A8010B
:101B9C00A901A7016430B500D62F03302A2F2E30AF
:101BAC002A2F38302A2F83124308A7004408312FDC
:101BBC0083124108A7004208312F42302A2F0F30E0
:101BCC002A2FFA30B500A93083123F07A900003044
:101BDC00031801304007AA008525A60083162D089E
:101BEC00F000F1010310F00DF10D0310F00DF10DEB
:101BFC000310F00DF10D83122508F0070318F10AFC
:101C0C0071083807C900700837070318C90A8A1108
:101C1C00F3208A1500380319392E83162D08F0008D
:101C2C00F1010310F00DF10D0310F00DF10D031087
:101C3C00F00DF10D83122508F0070318F10A710855
:101C4C003807C900700837070318C90A8A11F3202E
:101C5C008A15F0002608C23E8400831370088000A9
:101C6C00A60AA50AF42D2608C23E8400831322304E
:101C7C008000A60A2608C23E84008313D22F2B258F
:101C8C00A200A208031D512E32308316B500831218
:101C9C00A0140F302B2F22080F390319C72E6430D4
:101CAC008316B500A33083123F07A9000030031838
:101CBC0001304007AA008525A600A50122080F398E
:101CCC00F000F1010310F00DF10D0310F00DF10D0A
:101CDC000310F00DF10D2508F0070318F10A370871
:101CEC00F0070318F10A3808F1077108C900F83039
:101CFC007007031CC9038A11F3208A1500380319D5
:101D0C00B12E22080F39F000F1010310F00DF10D86
:101D1C000310F00DF10D0310F00DF10D2508F00777
:101D2C000318F10A3708F0070318F10A3808F1070D
:101D3C007108C900F8307007031CC9038A11F3201D
:101D4C008A15F0002608C23E8400831370088000B8
:101D5C00A60AA50A642E2608C23E840083132230EC
:101D6C008000A60A2608C23E840083133B30800004
:101D7C00A60A2608C23E840083130D308000093069
:101D8C001E2F2208F0390319FE2F4C303F07A900F3
:101D9C000030031801304007AA008525A600A501D4
:101DAC00C23E8400831322308000A60A2208F03938
:101DBC00F000F00E0F30F0057008F00EF030F0056A
:101DCC0070082507F03E03178D0083168C130C1436
:101DDC0083120C0803130319122F2208F039F00098
:101DEC00F00E0F30F0057008F00EF030F0057008B2
:101DFC002507F03E03178D0083168C130C148312E9
:101E0C0003132608C23E8400831303170C088000BA
:101E1C000313A60AA50ADC2E2608C23E8400223033
:101E2C008000A60A2608C23E84000D3080000A30CD
:101E3C008316AF008312D42FC1258A15FE2F0830CC
:101E4C002A2F8301FE2FB33083123F07A7000030E7
:101E5C00031801304007A800B5258A15D42F83122A
:101E6C003F08A7004008A800B5258A15A401A501C4
:101E7C000130F0002508F100F10A462F0310F00D97
:101E8C00F10B442F700821050319952FA301250888
:101E9C00F000F1010310F00DF10D0310F00DF10D38
:101EAC000310F00DF10D2308F0070318F10A710867
:101EBC003C07C90070083B070318C90A8A11F320B4
:101ECC008A15003803198E2F2508F000F101031034
:101EDC00F00DF10D0310F00DF10D0310F00DF10DDF
:101EEC002308F0070318F10A71083C07C9007008B1
:101EFC003B070318C90A8A11F3208A15F00024083D
:101F0C00C23E8400831370088000A40AA30A4D2FDC
:101F1C002408C23E8400831320308000A40AA50A42
:101F2C0008302502031C3E2F2408C23E8400831374
:101F3C001A308000A40AD42F913083123F07A900D5
:101F4C000030031801304007AA008525A600A01711
:101F5C00BA2F9A3083123F07A900003003180130C2
:101F6C004007AA008525A600C23E84008313831671
:101F7C003F0880008312A60A8316C0088312031937
:101F8C00CF2F2608C23E840083164008800083129F
:101F9C00A60A2608C23E84000D3080002015FE2FB4
:101FAC002F08F000E93E0318FE2F173E031CFE2FEE
:101FBC000030F0020F308A00E730700703188A0AED
:101FCC008200D32DD52DD72DE32DE52DE72DFE2F1A
:101FDC00452E452EFE2FFE2F222F252F272F352F56
:101FEC00A22FAF2FFE2FFE2FFE2F292FD92DDE2D46
:041FFC008312080044
:02400E00C23FAF
:00000001FF
